:020000040800F2
:10000000D893002055020008A532000805310008E9
:10001000A1320008E5070008D961000800000000CF
:100020000000000000000000000000003133000864
:10003000F507000800000000C13200086133000825
:100040006F0200086F0200086F0200086F020008CC
:100050006F0200086F0200086F0200086F020008BC
:100060006F0200086F0200086F0200086F020008AC
:100070006F0200086F0200086F0200086F0200089C
:100080006F0200086F0200086F0200086F0200088C
:100090006F0200086F0200086F0200086F0200087C
:1000A0006F0200086F0200086F0200086F0200086C
:1000B0006F0200086F0200086F0200086F0200085C
:1000C0006F0200086F0200086F0200086F0200084C
:1000D0006F0200086F0200086F0200086F0200083C
:1000E0006F0200086F0200086F0200086F0200082C
:1000F0006F0200086F0200086F0200086F0200081C
:100100006F0200086F0200086F0200086F0200080B
:100110006F0200086F020008513400086F020008E7
:100120006F0200086F0200086F0200086F020008EB
:100130006F0200086F0200086F0200086F020008DB
:100140006F0200086F0200086F0200086F020008CB
:100150006F0200086F0200086F0200086F020008BB
:100160006F0200086F0200086F0200086F020008AB
:100170006F020008A93200086F02000800000000AA
:100180006F0200086F0200086F0200086F0200088B
:100190006F0200086F0200086F0200086F0200087B
:1001A000093100086F020008E907000800F002F8B2
:1001B00000F040F80AA090E8000C82448344AAF1C1
:1001C0000107DA4501D100F035F8AFF2090EBAE8BF
:1001D0000F0013F0010F18BFFB1A43F0010318477B
:1001E0001080000030800000103A24BF78C878C129
:1001F000FAD8520724BF30C830C144BF04680C602D
:10020000704700000023002400250026103A28BF74
:1002100078C1FBD8520728BF30C148BF0B60704778
:100220001FB507F0AEFF9DE8030000F09BF91FBD6E
:1002300010B510BD00F052FA1146FFF7F1FF05F0BE
:10024000CDFF00F070FA03B4FFF7F2FF03BC00F03B
:10025000A1FA00000948804709480047FEE7FEE789
:10026000FEE7FEE7FEE7FEE7FEE7FEE7FEE7FEE766
:1002700004480549054A064B704700003D34000814
:10028000AD010008D88D0020D8930020D88F002021
:10029000D88F002070B5A0FB0140B4F1805170F1FF
:1002A000000024BF002070BD204600F08AF9050040
:1002B0001CBF214600F0EEF8284670BD70B504461C
:1002C000051F00F033F90068002C14BF446870BDAE
:1002D000002C18BFAC423CBF20466468F8D30168CC
:1002E0000A18AA4218BF456003D12A68054611447E
:1002F000016028684119A1421CBF6C6070BD616833
:10030000696021680844286070BD53EA020C00F05F
:1003100069802DE9F04B4FF00006002B1FBFB3FAA8
:1003200083F503FA05F424FA05F65E4012BF16437E
:10033000B2FA82F502FA05F4C5F120051EBF22FAD1
:1003400005FC44EA0C04203556EA044C4FEA1444F8
:1003500018BF641C4FF000084FF00009904271EB89
:10036000030C39D3002919BFB1FA81F701FA07F656
:10037000B0FA80F700FA07F6C7F120071EBF20FA8F
:1003800007FC46EA0C062037B6FBF4FCA7EB050792
:10039000103F07F01F0BCBF120062CFA06F60CFAE3
:1003A0000BFB44BFB3460026202FA4BF5E464FF090
:1003B000000B5BEA060C08BF4FF0010B19EB0B09B1
:1003C00048EB0608ABFB027C06FB02CC0BFB03CC24
:1003D000C01B71EB0C01C1E70B4602464146484683
:1003E000BDE8F08B13B5084318BF4FF0FF3001464E
:1003F000AFF30080BDE81C407047032A40F2308014
:1004000010F0030C00F0158011F8013BBCF1020F55
:10041000624498BF11F801CB00F8013B38BF11F8D6
:10042000013BA2F1040298BF00F801CB38BF00F8ED
:10043000013B11F0030300F0F380083AC0F008809C
:1004400051F8043B083A51F804CBA0E80810F5E74E
:10045000121D5CBF51F8043B40F8043BAFF3008031
:10046000D20724BF11F8013B11F801CB48BF11F8A6
:10047000012B24BF00F8013B00F801CB48BF00F876
:10048000012B704702F0FF0343EA032242EA0242D3
:1004900000F024B84FF000020429C0F0128010F0E0
:1004A000030C00F01B80CCF1040CBCF1020F18BF50
:1004B00000F8012BA8BF20F8022BA1EB0C0100F0E3
:1004C0000DB85FEAC17C24BF00F8012B00F8012BB6
:1004D00048BF00F8012B70474FF0000200B51346EB
:1004E00094469646203922BFA0E80C50A0E80C5054
:1004F000B1F12001BFF4F7AF090728BFA0E80C5005
:1005000048BF0CC05DF804EB890028BF40F8042BFD
:1005100008BF704748BF20F8022B11F0804F18BF6A
:1005200000F8012B704770477047704700487047CC
:1005300038000020704770477047704738B5044650
:100540000A4600206946AFF30080002808BF38BD86
:1005500002460099204600F0A0F8012038BD012095
:1005600000F0B5B8F8B5AFF30080054600200C46A2
:10057000102000BF0646A819A0420DD93246694690
:100580000020AFF30080070008BF00F0A0F800983B
:10059000A04218BF0546C419FFF7C8FF056007460B
:1005A000F01D20F007004619284600F06FF8B4420D
:1005B00008BFF8BDA21B31463868BDE8F84000F01E
:1005C0006CB870B50646FFF7B1FF056806F10B0081
:1005D00020F00704B4429CBF002070BD2B466A681F
:1005E000BAB11068A04210D304F1080188423CBFA0
:1005F0005068586007D35168101941601168091B91
:10060000016058601460101D70BD13465268002AC6
:10061000E7D121462846FFF791FF0028DED170BDC3
:1006200010B5203AC0F00B80B1E81850A0E818507F
:10063000B1E81850A0E81850203ABFF4F5AF5FEACF
:10064000027C24BFB1E81850A0E8185044BF18C974
:1006500018C0BDE810405FEA827C24BF51F8043B1B
:1006600040F8043B08BF7047D20728BF31F8023B6F
:1006700048BF11F8012B28BF20F8023B48BF00F803
:10068000012B7047004870473000002000210160B6
:10069000C0E90110704710207047034640688C463F
:1006A000002818BF88423CBF03464068F8D318684A
:1006B0001844884207D00CF1030020F00700001D09
:1006C000411A521A0146081D0A60FFF7F7BD10B51E
:1006D00000F038F8BDE8104000F02EB87546FFF77E
:1006E000D1FFAE4605006946534620F00700854617
:1006F00018B020B5FFF7BCFDBDE820404FF0000664
:100700004FF000074FF000084FF0000BAC46ACE88C
:10071000C009ACE8C009ACE8C009ACE8C00921F0E8
:1007200007018D46704710B50446AFF300802046A0
:10073000BDE81040FFF787BD002801D000F02AB8BF
:100740007047000010B5012805D0002103A000F07B
:1007500028F8012010BD09A1F8E7000053494752CD
:10076000544D454D3A204F7574206F662068656181
:1007700070206D656D6F7279000000003A20486549
:100780006170206D656D6F727920636F7272757024
:100790007465640001491820ABBEFEE72600020024
:1007A000704770B505460C460A2000E06D1C00F04D
:1007B00011F835B128780028F8D102E0641C00F067
:1007C00009F814B120780028F8D1BDE870400A205B
:1007D000AFF3008008B569468DF800000320ABBE7A
:1007E00008BD0000FEE7000040F28450C2F20000A5
:1007F00000F032B970470000EFF3108072B600BF0E
:10080000FEE700002DE9F0410B680268E3B1D1E991
:10081000073722F4F8424E6A1A433A4332430260E1
:10082000426847F6FF739A43D1E90137D1E903657E
:100830001A433A43D1E9054132432A432243114343
:1008400041600020BDE8F08147F6FF7322EA030C07
:10085000D1E90132D1E903E443EA0C0301F11408C0
:100860001A4398E8E00142EA0E0222432A43324347
:10087000496A3A4342EA0802114301600020BDE898
:10088000F08100002DE9F0418368AAB340F6FF72C1
:10089000CFF60F721A40CB684FF20006CFF6FF7604
:1008A0004F6906EB03330026CFF6F07606EB0757C9
:1008B0001A433A438260C268D1E900378E686FF00C
:1008C0000F0402F0704204EB07176FF0FF04013BC6
:1008D0000D6904EB062600241A43CFF6FF748969DC
:1008E0003A4304EB0545324301392A4342EA0161A8
:1008F000C1600020BDE8F08103F0704CD1E9003206
:10090000D1E902E401F110084FF20001013B6FF060
:100910000F07CFF6FF7198E8600107EB02126FF046
:10092000FF0701EB0431002443EA0C0307EB0E2719
:10093000CFF6FF741A4304EB054500243A43CFF683
:10094000F074114304EB06562943A8F10104314326
:1009500041EA046181600020BDE8F081002804BF05
:100960000120704710B50446407918B1012060712C
:10097000002010BD00202071204600F005F8012065
:100980006071002010BD000081B043F63001C4F258
:1009900002010068A1F50362904201D001B07047E6
:1009A00000200090086840F480500860086800F457
:1009B00080500090009801B0704700007047000020
:1009C000B0B590F83820012A4FF0020242D080F8EA
:1009D000392000EB0112D2E90745536A02F1180CE5
:1009E000A4F1090E1A06BEF1020F38BF03F07F42D0
:1009F00042EA05450268002945EA040112D0D4699B
:100A00004FF6F075C0F2FC052C402143D161DCF8B3
:100A10000010BEF1010F11619CBF23F07F411162F4
:100A200012E000BF536A4FF6F074C0F2FC0423409A
:100A300019435162DCF80010BEF1010F916103D837
:100A4000416A21F07F4191620121002280F8391032
:100A500080F838201046B0BD70B50446006846687E
:100A60000568F10718BF15F480717DD1B0061AD55D
:100A700015F4005017D020686169026822F4005212
:100A800002604FF020028260E06B40F00200E06301
:100A90004FF0040084F839004FF0000084F838006B
:100AA00009B12046884730071AD515F4006017D0E1
:100AB00020686169026822F4006202604FF0080257
:100AC0008260E06B40F00400E0634FF0040084F8C3
:100AD00039004FF0000084F8380009B120468847FB
:100AE00070070CD515F4806009D02068016821F4E6
:100AF0008061016004218160204600F07BF8B0072E
:100B000018D515F4007015D020682169026822F408
:100B1000007202604FF002028260E06BE0634FF00F
:100B2000010084F839004FF0000084F8380009B162
:100B300020468847F00658BF70BD15F480502BD072
:100B40002068016821F48051016010218160E06B10
:100B50000021E063012084F83900204684F8381031
:100B6000BDE87040FFF72ABF016821F48071016081
:100B7000E16B41F00101E16301218160042084F80F
:100B8000390061690020002984F838003FF46EAF15
:100B9000204688476AE700BF70BD0000002804BFF8
:100BA0000120704710B5044690F8390028B900209C
:100BB00084F83800204600F01FF8022084F839003D
:100BC00094E80710036823F4403319430160416B34
:100BD00021F0070111434163016C43F6FF72914319
:100BE00041EA0C01016400200121E06384F839101E
:100BF00010BD00007047000080B582B000684BF265
:100C00000001C4F2020188421CBF02B080BD002076
:100C1000019043F63000C4F202000168002241F462
:100C2000000101600068052100F4000001900198B6
:100C30005A2001F0FFF95A2002B0BDE8804001F0CF
:100C4000E5B90000B0B5044600F0EAF8054640F208
:100C50000000C2F200000078611C18BF044400BF0D
:100C600000F0DEF8401BA042FAD3B0BD2DE9F04FF2
:100C700082B000F13E4242F2004502F1FF77C4F239
:100C800002050A2243F6004E4FEAB726A84208BFE3
:100C90000922C4F2010E092E38BF4FEAB7220125FE
:100CA000002600274FF00008009208E008F1010834
:100CB0000437B8F1100F06F1020600F0A7800C68A7
:100CC00005FA08F914EA090FF0D0D1F804B00322AC
:100CD0000BF0030CACF10104B240012C6FEA020AE4
:100CE00010D88268CC6802EA0A02B44022438260CB
:100CF0004268CBF3001422EA090204FA08F4224302
:100D0000426005E0BCF1030F02D14FF0030C20E07C
:100D1000C2688C6802EA0A02B4402243BCF1020FA6
:100D2000C26016D16FF0030202EA58020244D2F800
:100D300020C007F01C050F230C69AB402CEA03030D
:100D400004FA05F52B431362D1F804B001250BF02A
:100D5000030C02680CFA06F302EA0A021A431BF4B7
:100D6000403F0260A2D0002243F644030192C4F245
:100D700002031A684FF6084C42F480421A601A685F
:100D8000CFF6FF7C02F480420192019A28F0030220
:100D9000724452F80C3007F00C050F24AC40A3430A
:100DA000009C04FA05F52B4342F80C30DEF80820CD
:100DB0004B6842EA090543F60C4CDC0258BF22EAB4
:100DC0000905CEF80850C4F2010CDCF800209C02A2
:100DD00042EA090558BF22EA0905CCF80050DEF8BE
:100DE00004209C0342EA090558BF22EA0905CEF80F
:100DF0000450DEF80020DB0342EA090558BF22EA6E
:100E00000905CEF80050012550E700BF02B0BDE84B
:100E1000F08F0000002A08BF0904816170470000BC
:100E200048F67C30C2F2000000687047D0F800033A
:100E300003F008BBD0F8000303F018BB006804F00F
:100E4000F9B80000006804F0F9B800002C2211FB8A
:100E5000020090F8600070472C2211FB0200006D28
:100E60007047000010B5044690F8F802012804BF4E
:100E7000022010BD2068012284F8F82204F0EEF868
:100E8000002084F8F80210BDF0B583B0044690F855
:100E9000F802012802D1022003B0F0BD012084F83D
:100EA000F8022C2011FB004602F07F0086F83A0081
:100EB000D009DDF828C0DDE9085E86F83B0020682F
:100EC000002786F83D7086F83830A6F840C086F8CE
:100ED000391086F83FE086F83C50CDE9005ECDF849
:100EE00008C004F06BF984F8F87203B0F0BD00009C
:100EF000D0F8000303F042BB2DE9F041DDE90664C0
:100F00008C462C21DDE908E51CFB0101002E81F84F
:100F10003B2081F83F3006BF81F83D500325022574
:100F200001F8425F032B4FF0000827D80027DFE8C5
:100F300003F00B24030300BFB2B12C221CFB0202FE
:100F400092F8542015E000BF002A08BF012E15D1E9
:100F50002C221CFB0202BEF1000F02F1550221D02F
:100F600012780ABB002708E02C221CFB020292F830
:100F70005520002A18BF012257000F702C2103684A
:100F80001CFB0105027C05F138016C64A5F860804A
:100F9000C5E913E8184685F839C0BDE8F04104F00A
:100FA0009DB900BF012313700227E6E72DE9F04F3A
:100FB00083B006680446304604F04CF8012840F03F
:100FC0003783206804F0CCFB002800F031832068D0
:100FD00004F0C6FB01462068890244BF4FF40011AB
:100FE000416104F0BDFB01462068C90244BF4FF4D3
:100FF0008011416104F0B4FB01462068490144BFFF
:101000004FF08061416104F0ABFB01462068890725
:1010100044BF0221416104F0A3FB800015D5206884
:101020004FF000514161D6F84004C0070DD1304661
:10103000102103F0A3FF304603F044FF2068012194
:1010400004F072FB2046FFF7F5FE206804F088FBF1
:10105000C0011AD52568D5F840040290D5F840049F
:101060000190019820F02E000190029880074DD445
:101070000298000757D40298800603D5019840F0E3
:10108000200001900198C5F84004206804F068FB36
:10109000000707D4206804F063FB2568C0060DD460
:1010A00092E000BF204600F08BFB206808214161E0
:1010B00004F056FB2568C00640F18680A86920F040
:1010C0001000A861286A00F4F011B1F5802F76D1E4
:1010D000C0F30A19B9F1000F71D000F00F082C20ED
:1010E00018FB0047BA465AF8441F002967D057F842
:1010F000500F57F8042C4844904233D92C2018FB49
:101100000040042180F8601059E000BF0298C00739
:1011100002D02046FFF78AFE019840F002000190BD
:1011200002980007A7D5019840F0080001900298A6
:10113000400707D4204600F037FB029880069DD474
:10114000A0E700BFA069022840F07682029800F470
:10115000C0212068B1F5802F14BF0121022104F0C5
:10116000E3FA70E228464A4604F0FEFADAF8000094
:1011700039684844CAF8000001EB09002C223860A5
:1011800005EB481018FB0242D0F81015B2F84020C9
:10119000914514D10022C1F6F87211400FD000F52C
:1011A000A0600168022262F39F7101602C2018FB8D
:1011B000004090F8541081F0010180F85410256827
:1011C000A86940F01000A861284604F0C9FA80011F
:1011D00040F12E82206804F07DF8A168002900F01B
:1011E0002382054606F5A0674FF0000B0FE000BF15
:1011F0004FF40071C8F80010314603F02FFFA068CB
:101200000BF1010B834507F1200780F00D820BF0F5
:101210000F0025FA00F0C007F1D0396820685FFAA6
:101220008BF600EB461202F5A06A02F5A168D2F82F
:101230000825090402F0040142D400294FF02C02D1
:101240005AD1D8F80010890668D4D8F8001089055A
:10125000CED4D8F80010C90740F01881D8F8001093
:10126000490600F13781D8F80010090700F16881BC
:10127000D8F80010C90600F16B81D8F800100906F3
:1012800000F17C81D8F80010490500F18D81D8F873
:1012900000008007B3D52C2016FB004090F86110A9
:1012A0000139072900F24281DFE811F09A0140017B
:1012B000080008003601C4004001C400022133E1E7
:1012C0004FF02C0911BBD8F80010C90538D4D8F854
:1012D0000010890600F19080D8F80010090700F18D
:1012E000E780D8F80010490500F10481D8F8001013
:1012F000090631D580210AE00421C8F8001016FB48
:101300000241062281F8612076E700BF0421C8F877
:10131000001016FB0941062219E000BF2021C8F881
:10132000001016FB02410A4612F83D3F012B7FF4E4
:1013300066AF00231370022281F860205CE700BFD3
:101340004FF48071C8F8001016FB0941072281F89C
:101350006120314603F082FED8F80000800552D4A7
:10136000D8F80000C0071DD1D8F80000800753D47A
:10137000D8F80000C0067FF542AF2C2016FB0040D5
:1013800090F83F10002918BF022940F0BB80216966
:1013900000294FF00001C16540F0BC80032180F8B6
:1013A0006110B3E0206940B116FB0940816CDAF8A6
:1013B00010206FF3DF42891A01652C2016FB0049CB
:1013C0000121002089F86110C9F85C00C8F80010FC
:1013D00099F83F0003280AD8DFE800F00236023609
:1013E0002068314603F03AFE1020C8F8000020695A
:1013F00001283AD042E000BF2020C8F80000D8F809
:1014000000008005ACD52068314603F027FE4FF47C
:101410000070C8F80000F2E616FB094090F8611071
:101420000139072900F28280DFE801F078804A80E4
:1014300076047A04014651F85C2F0132032A0A60CF
:101440003ED300220A606EE0DAF80000314640F038
:101450000050CAF80000012089F8600020460122EF
:10146000FFF746FD2069012808D1D9F84800B9F8EE
:101470004010B0FBF1F0C0073FF4C1AE99F8540042
:1014800080F0010089F85400B9E600BF16FB024164
:101490000022CA65D8F80020520605D5012281F83D
:1014A0003D204022C8F800200122C8F8002029E78A
:1014B0000821C8F8001016FB0941052247E700BFC4
:1014C000022280F86020DAF8001062F39F71CAF8F7
:1014D00000102BE016FB0241042281F8612001225A
:1014E00081F83D200022CA65314603F0B7FD402057
:1014F0008FE700BF4FF48061C8F8001016FB094168
:10150000082224E7032905D10021C165206831465E
:1015100003F0A4FD10207CE7052105E0012103E094
:10152000C16D0131C165042180F860100221C8F845
:10153000001090F8602020463146FFF7D9FC5EE6A7
:101540000821C8F8001016FB02410522DAE600BFA8
:1015500016FB024C614611F83D3F0022C1F81F20E6
:10156000002B4FF0030281F82420D0D19CF83C20BE
:10157000002ACCD101220A70C9E700BF2169F9B164
:1015800016FB0240014651F85C2F0132032A0A6023
:1015900020D300220A60042180F8601020463146E2
:1015A0000422FFF7A5FC18E016FB0241082281F88F
:1015B0006120314603F052FD4FF4806029E700BFFF
:1015C00016FB0241062281F86120314603F046FDF8
:1015D00003E000BF022180F86010802019E700BFFF
:1015E00090F83F1001F0FE0102294FF0010180F850
:1015F00060109BD12169012902D071B196E700BF2B
:10160000C16C00293FF492AFB0F840201144013979
:10161000B1FBF2F1C9073FF489AF90F8551081F0A2
:10162000010180F8551081E720684FF00071416199
:1016300003B0BDE8F08F00BFE068012804BF4EF69C
:101640006020C5F80404204600F0B2F80298800635
:101650003FF514AD16E50000002804BF01207047D7
:101660002DE9F04F8BB00446056890F8F90228B9CF
:10167000002084F8F802204600F04EF8032084F899
:10168000F902E86BC0055CBF00202061206803F010
:10169000E3FB206804F11C0A0A90D4E90C5004F121
:1016A000040E9AE8C0079EE80E58CDE9085003A83A
:1016B00080E8C0030A988DE80058CDF81CA003F01C
:1016C000DBFA2068012104F0C5F8D4E9008004F1B8
:1016D00008070A90D4E90C01D4E9056504F1240B4C
:1016E0008CCFD4E907CE9BE8000ECDE9080102A813
:1016F0000A9980E820504046CDE90076CDE9059A68
:10170000CDF81CB003F0D6FE012084F8F9020020C9
:101710000BB0BDE8F08F0000F0B587B00068002185
:10172000C4F20401884201D007B0F0BD002743F69F
:1017300030060297C4F20206306840F2004440F0DE
:10174000020030603068C4F2020400F0020002902F
:1017500002984FF4504002900220CDE903070C207C
:1017600002AD0690204629460597FFF77FFA4FF411
:101770000050CDE90207204629460497FFF776FA84
:1017800001973068052140F0005030603068002239
:1017900000F00050019001984D2000F04BFC4D20CE
:1017A00000F034FC07B0F0BDD0F8000302F00EBF2B
:1017B000D0F8000302F00EBF006804F02BB8000060
:1017C000D0F8000302F096BE10B5044690F8F80277
:1017D000012804BF022010BD0121206884F8F812FE
:1017E000012103F041FB206803F064FB002084F832
:1017F000F80210BD10B5044690F8F802012804BFA5
:10180000022010BD2068012184F8F81204F054F879
:10181000002084F8F80210BD90F83D20202A1CBF5B
:1018200002207047242280F83D200268136823F0CC
:1018300001031360536A23F010035362536A194380
:101840005162116841F001011160202180F83D10C2
:101850000020704790F83D20202A1CBF02207047CE
:10186000242280F83D20026889B2136823F0010326
:101870001360D2F824C04FF6F07303EA0C03194347
:101880005162116841F001011160202180F83D1082
:101890000020704770B5B8B3044690F83D0028B9F1
:1018A000002084F83C00204600F0B0F8242084F8A2
:1018B0003D002068016821F001010160016841F4E8
:1018C00000410160016821F40041016000F0E2FD87
:1018D00048F28041C0F21E0140F60013D4F804E043
:1018E00088424FF00001C0F23D0348F2A16C4FF076
:1018F000000238BF01219842C0F2010C38BF01221A
:10190000E64538BF0A460AB1012070BD4DF6836135
:10191000C4F21B31A0FB01122168950C4B684FF4F7
:10192000967623F03F0343EA9243754344F6D35639
:101930004B60C1F262060B6AA5FB0656B50923F09F
:101940003F03E64538BF950C6A1C1A430A62CA6910
:1019500048F2A0664CF6FF73C0F20106B64522EAD3
:1019600003020BD801384FEA4E03B0FBF3F001300D
:101970006FF31F30042898BF04201EE0A3680138CD
:1019800063B119230EFB03F3B0FBF3F001306FF3E7
:101990001F3078B100F5804008E000BF0EEB4E0329
:1019A000B0FBF3F001306FF31F3028B100F50040B9
:1019B00003E000BF012000E001201043C861086877
:1019C000D4E9072320F0C00010431843086088685A
:1019D00048F2FF3204F10C0690434CCE18431043FA
:1019E000A5698860C86820F0FF0030432843C860BC
:1019F000086840F00100086000202021206484F87D
:101A00003D10206384F83E0070BD00002DE9F047D2
:101A100086B0006845F60047C4F20007B84203D01C
:101A200006B0BDE8F08700BF002643F630050196FA
:101A3000C4F20205286801AC40F004002860286860
:101A40004FF0120800F004000190019801962868F8
:101A50004FF0010940F00100286028684FF0040AA7
:101A600000F00100019001984FF40070019007F51B
:101A7000D6302146CDF80880CDE90396CDF814A0E4
:101A8000FFF7F4F84FF4807001A981E8010307F52E
:101A9000D2302146CDE9046AFFF7E8F800962869BC
:101AA00040F400002861286900F4000000900098CC
:101AB00006B0BDE8F087000040F2000048F67C3137
:101AC000C2F20000C2F2000100780A681044086007
:101AD0007047000080B543F60040C4F20200016880
:101AE00041F400710160016841F4806101600168A6
:101AF00041F480710160032000F0C8FA002000F07A
:101B000005F800F061FA002080BD000070B586B0D5
:101B1000002543F640010195C4F202010A6804461B
:101B200042F010020A60096801A801F01001019159
:101B30000199694600F08EFC049E002E18BF012614
:101B400000F0A8FC4DF68361B040C4F21B31A0FB4D
:101B500001014FF0FF3000EB914140F6642041F26B
:101B60000002C2F20000C4F2000240F2E733C0E912
:101B70000021C0E902530561856101F025F80546A1
:101B800010B1284606B070BD40F66420C2F20000D5
:101B900001F064F805460028F3D1362000F036FA4B
:101BA0000F2C0DD8362021460022002500F042FAE5
:101BB00040F20400C2F200000460284606B070BD86
:101BC0000125284606B070BD2DE9F041044690F885
:101BD000A00001284FF0020008BFBDE8F0814FF0DF
:101BE000010884F8A08084F8A100342002FB0040A2
:101BF000D1E900CED1E90267D1E90453C0E9106709
:101C0000C0E91253C0E90ECED1E906CED1E908658C
:101C1000D1E90A73C0E91665C0E91873C0E914CEAA
:101C20000B6B8366204601F075FA2068C0F82480AB
:101C3000002084F8A18084F8A000BDE8F0810000B5
:101C40007047000070B504460068866B456B7107ED
:101C500016D515F0040113D0416B21F00401416346
:101C60000421C163D4F8A40040F00100C4F8A4002A
:101C7000002084F8A11084F8A0002046FFF7E0FFC0
:101C8000B00718D515F0020015D02068416B21F07F
:101C9000020141630221C163D4F8A40040F00200B4
:101CA000C4F8A400042084F8A100002084F8A00057
:101CB0002046FFF7C5FFF00718BF15F001000ED052
:101CC0002068416B21F0010141630121C1630020C3
:101CD00084F8A11084F8A000204600F08DF83007A9
:101CE00058BF70BD15F0080012D02068416B21F07C
:101CF000080141630821C1630120002184F8A1008B
:101D0000204684F8A010BDE8704000F05BB900BF29
:101D100070BD0000002804BF0120704710B50446C4
:101D200090F8A10028B9002084F8A000204600F017
:101D300065F8022084F8A100D4E9000CD4E902235C
:101D4000816921F07041816142EA0C0122691943E5
:101D5000836911431943816181684FF6000CCFF20A
:101D6000000C01EA0C018160D4E90513826843EAA2
:101D7000014111438160C16801EA0C01C160D4E9ED
:101D80000712C36842EA01411943C160016901EACF
:101D90000C010161D4E90912036942EA01411943C6
:101DA0000161416901EA0C014161D4E90B12436907
:101DB00042EA01411943416194F8351094F8362004
:101DC000C36A120403F07F43C36242EA012194F81C
:101DD0003420C36A11441943C162416B41F00601CA
:101DE0004163816941F00101816100200121C4F852
:101DF000A40084F8A11010BD704700002DE9F04741
:101E000092B0054600201190CDE90F00CDE90D00FC
:101E100001A840F2004904302C21C4F20209FEF767
:101E20005BFB2868A9F51C41884203D012B0BDE8CD
:101E3000F08700BF08200190322005904FF0020883
:101E400001A8CDF81C8000F031F9002818BFFEF77A
:101E5000D3FC002743F630000097C4F2020041692A
:101E60000DAD41F08061416141690E2401F0806156
:101E7000009100990097016841F02001016001681C
:101E800001F02001009100990097016841F00101E3
:101E90000160016801F0010100910099009701685B
:101EA00041F002010160016801F002010091009916
:101EB0000097016841F040010160016801F04001B4
:101EC000009100990097016841F0040101600168E8
:101ED00001F00401009100990097016841F00801A8
:101EE00001600068294600F00800009000984FF457
:101EF0008060CDE90D0809F58050CDE90F77119488
:101F0000FEF7B4FE41F65800CDE90D08A9F5806052
:101F10002946CDE90F771194FEF7A8FE0320CDE9FD
:101F20000D084FF0090A48462946CDE90F77CDF84C
:101F300044A0FEF79BFE4FF47060CDE90D084846C3
:101F40002946CDE90F771194FEF790FE4FF40C600F
:101F500009F5A056CDE90D0830462946CDE90F77A1
:101F60001194FEF783FE4FF49860CDE90D0809F552
:101F700080602946CDE90F771194FEF777FE48205F
:101F8000CDE90D0809F500602946CDE90F771194D8
:101F9000FEF76CFE4FF4A050CDE90D0830462946FF
:101FA000CDE90F77CDF844A0FEF760FE582005215B
:101FB000002200F03FF8582000F028F812B0BDE8E9
:101FC000F08700007047000082B0002043F6400117
:101FD0000190C4F202014A6842F480424A604A68B1
:101FE00002F480420192019A00900868002240F0B9
:101FF0008050086008680F2100F080500090009821
:102000006FF0010002B000F015B80000002848BFD2
:102010007047C1B200F01F00012202FA00F04EF238
:102020000012CEF2000242EAD10121F00301086061
:102030007047000010B54EF60C5CCEF2000CDCF8D8
:102040000030C3F3022E8EF00704042C28BF0424B2
:10205000BEF103034FF0FF3E0EFA04F438BF002335
:10206000A14399400EFA03F39A43114300F00F0283
:1020700000F160430901043A03F564436244002817
:1020800048BF02F10C03197010BD00004EF60C5150
:10209000CEF200010A684FF6FF031A4060F30A22ED
:1020A00042F0806040F0FD7008607047F0B581B08C
:1020B0000446006843F6700610F0430FC4F20206AF
:1020C00033D06827C4F2472700203860FEF7A8FE07
:1020D000054600BF56F8700C000105D5FEF7A0FEBE
:1020E000401B0228F6D9AFE02068C1076AD18107FA
:1020F00071D4400608D5E168D4E90102090641EA35
:10210000801040EA0270706101203860FEF788FE9E
:10211000054600BF56F8700C000105D4FEF780FE9E
:10212000401B0228F6D98FE0206810F00C0F68D011
:102130006827C4F247270020B860FEF771FE054605
:1021400056F8700C800005D5FEF76AFE401B022889
:10215000F6D979E02068410713D5B169D4E90423A1
:1021600001F0E04141EA821141EA0361256AB1616F
:10217000F1696FF0FF0221F4F85102EB05221143DF
:10218000F16100070FD5B069216900F07060A269A4
:1021900040EA811040EA0270636AB061F06920F49D
:1021A00040301843F0610120B860FEF739FE054663
:1021B00056F8700C800023D4FEF732FE401B022834
:1021C000F6D941E0D4E90121090741EA82117161A0
:1021D00081077FF58EAF7169626801F0E041E368C5
:1021E00041EA821141EA0361E5697161F1696A1EA0
:1021F00021F01F011143F16140063FF57CAF83E7F9
:102200002068810654D50020009056F8300C47F223
:10221000000740F0805046F8300C56F8300CC4F2FD
:10222000000700F0805000900098386840F48070FB
:102230003860FEF7F5FD05463868C00508D4FEF79E
:10224000EFFD401B0228F7D9032001B0F0BD00BF0D
:10225000306810F4407013D0A16A01F440718842D4
:102260000ED0306840F64061C4F24721012220F4CC
:1022700040700A6000220A6030603068C00729D1CF
:102280002068A16A56F8682C4FF6FF4701F44073A6
:1022900022F4F812C0F6FF770F40B3F5407F08BF75
:1022A0003A4346F8682C32686FF31F3111433160AE
:1022B000C00603D4002001B0F0BD00BF94F82C008C
:1022C00040F64061C4F24721C1F8A003002001B0EC
:1022D000F0BD00BFFEF7A4FD054641F28837306827
:1022E0008007CDD4FEF79CFD401BB8424FF00300A1
:1022F000F5D9ECE72DE9F041002800F08B8043F69A
:102300000808C4F202080446D8F8F8030D4600F0A5
:102310000F00884207D288F8F853D8F8F80300F085
:102320000F00A84276D12068810717D5410705D54F
:10233000D8F8001041F4E051C8F80010010705D5A5
:10234000D8F8001041F46041C8F80010D8F8001027
:10235000A26821F0F0011143C8F80010C0073FD176
:10236000D8F8F80300F00F00A84207D988F8F8530E
:10237000D8F8F80300F00F00A8424BD120684107BD
:1023800007D5D8F80010E26821F4E0511143C8F8ED
:102390000010000708D5D8F80000216920F460403B
:1023A00040EAC100C8F8000000F09CF8D8F800101E
:1023B00048F29C12C1F30311C0F60002515C40F2D6
:1023C000280220FA01F140F20400C2F20000006885
:1023D000C2F200021160FFF799FB0020BDE8F08116
:1023E0006068811E022907D258F8081C89015CBF69
:1023F0000120BDE8F08111E0012807D158F8081C40
:1024000089035CBF0120BDE8F08107E058F8081C93
:10241000890703D40120BDE8F08100BFD8F800107F
:1024200021F003010843C8F80000FEF7F9FC064656
:1024300041F28837D8F80000616800F00C00B0EB7A
:10244000810F8DD0FEF7ECFC801BB842F2D903203F
:10245000BDE8F0810F22026043F60802C4F20202D6
:10246000136803F003034360136803F0F003836011
:10247000136803F4E053C360D2F800C04FF4E05394
:1024800003EADC030361D2F8F80300F00F000860F0
:102490007047000040F2280043F60801C2F2000035
:1024A000C4F202010068096848F2AC12C1F382214B
:1024B000C0F60002515CC8407047000040F228009E
:1024C00043F60801C2F20000C4F202010068096884
:1024D00048F2AC12C1F34231C0F60002515CC84070
:1024E0007047000010B543F60404C4F202046068AB
:1024F00000F00C0142F200400829C0F2F40007D0BD
:10250000042918BF10BD41F20020C0F27A0010BDAE
:10251000216801F03F02216823684902C3F3881152
:1025200006D4A1FB00010023FDF7EFFE07E000BF8A
:1025300041F20020C0F27A004843B0FBF2F021687B
:102540000222C1F3014102EB4101B0FBF1F010BDE9
:102550002DE9F04182B0002868D00446007843F6A7
:102560000006C007C4F202060BD0B06800F00C00F1
:10257000042840F09F803068800302D560680028FE
:1025800054D0207880071AD5B06810F00C0F09D00D
:10259000B06800F00C00082840F0A6807068400287
:1025A00000F1A2803068800702D5E06801283DD1A3
:1025B0003068216920F0F80040EAC10030602078DE
:1025C000000737D4207840074CD4A56955B3B068CC
:1025D00000F00C00082840F0BB80012D26D0706868
:1025E000E16900F480028A4220D1216A00F03F02B2
:1025F0008A421BD147F6C071626A0140B1EB821F6B
:1026000014D1A16A4FF6FF73C903994300F4403215
:10261000A1F580318A4209D1E16A00F07060B0EB27
:10262000016F03D1002002B0BDE8F081012002B0AB
:10263000BDE8F0816069002840F20000C4F2472044
:1026400076D00121C0F8801EFEF7EAFB054600BFE8
:10265000706F8007B6D4FEF7E3FB401B0228F7D962
:10266000DDE000BF306C10F080580AD100200190EE
:10267000306C40F080503064306C00F0805001903D
:10268000019847F20007C4F200073868C00541D43A
:10269000386840F480703860FEF7C2FB054600BF22
:1026A0003868C00536D4FEF7BBFB401B0228F7D9BB
:1026B000B5E000BFB06800F00C00082803D17068D6
:1026C00040023FF558AF6068B0F5803F07D0B0F5E5
:1026D000A02F40F08D80306840F48020306030685A
:1026E00040F4803030608DE0E068002852D0002057
:1026F000C4F2472001210160FEF792FB054600BFAE
:10270000306880073FF554AFFEF78AFB401B022874
:10271000F6D984E0A068012805D005284ED1306F95
:1027200040F004003067306F40F0010030674FE048
:102730000021C0F8801EFEF773FB0546706F80070E
:102740007FF540AFFEF76CFB401B0228F6D966E030
:102750000027C4F2472700203866FEF761FB022DF0
:1027600005460BD1306880015ED5FEF759FB401B52
:1027700002284FF00300F5D955E700BF306880010B
:102780007FF550AFFEF74CFB401B02284FF00300D3
:10279000F4D948E70020C4F2472000210160FEF789
:1027A0003FFB0546306880077FF509AFFEF738FB31
:1027B000401B02284FF00300F4D934E7316F0028A2
:1027C00021F001013167316F21F0040131674DD0F3
:1027D000FEF726FB054641F2883700BF306F8007C1
:1027E00056D4FEF71DFB401BB842F7D917E000BFD7
:1027F0003168002821F480313160316821F4802172
:1028000031604FD0FEF70CFB054600BF30688003F7
:102810003FF5B7AEFEF704FB401B6428F6D9032052
:1028200002B0BDE8F08100BF04F11C052FCD0843C4
:1028300040EA8210D9034FF6FF729143A1F580312F
:1028400040EA05600843706001203866FEF7E8FA48
:10285000044600BF306880013FF5E4AEFEF7E0FAC1
:10286000001B02284FF00300F4D9DCE6FEF7D8FA8B
:10287000054641F2883700BF306F800708D5FEF764
:10288000CFFA401BB8424FF00300F5D9CBE600BFAA
:10289000B8F1000F7FF499AE306C20F080503064B6
:1028A00093E600BFFEF7BCFA054600BF3068800320
:1028B0007FF567AEFEF7B4FA401B64284FF00300C3
:1028C000F4D9B0E6002804BF01207047B0B5044633
:1028D00090F82C000D4628B9002084F82D002046E1
:1028E00000F012F8022084F82C002068211DFDF76A
:1028F00089FFD4E900022946FDF7C4FF012084F8CE
:102900002C000020B0BD00002DE9F04786B040F259
:102910009C10C2F200000178002961D14FF0010A39
:1029200080F800A04FF0000843F63800CDF804808E
:10293000C4F20200016840F2004441F0010101606C
:102940000068C4F2020400F00100019001984FF603
:102950003F0001AD01904FF0020903260C2704F55A
:1029600080502946CDE9029804960597FEF77EF936
:1029700004F580602946CDE901A9CDE903860597D4
:10298000FEF774F948F23310CDE9010904F5A050BF
:102990002946CDE903860597FEF768F94FF683705F
:1029A000CDE9010904F540602946CDE90386059784
:1029B000FEF75CF94CF20370CDE9010904F5006003
:1029C0002946CDE903860597FEF750F96020CDE949
:1029D000010920462946CDE903860597FEF746F909
:1029E00006B0BDE8F087000070B538B10446406A13
:1029F00030B10020206104F1140007E0012070BD17
:102A00006068B0F5827F03D004F11C0000210160F2
:102A10000026A66294F8510020B9204684F8506040
:102A200000F03CF8022084F8510094E80F0001F413
:102A30008271056802F4044225F0400505601144E6
:102A400003F400622369114403F002026369114434
:102A500003F00102A369E569114403F40072114413
:102A600005F03802256A114405F08002A56A114379
:102A700005F4005211430160626A042101EA134126
:102A800002F0100211444160C16921F40061C1618A
:102A90000120666584F85100304670BD80B586B06F
:102AA000016845F20000C4F20100814202D006B084
:102AB00080BD00BF002143F630020191C4F2020242
:102AC000536900F5444043F480135361536903F4A0
:102AD00080130193019B0191136843F0200313605D
:102AE000126802F020020192019A4FF46072019282
:102AF0000222CDE9022104910521059101A9FEF7E9
:102B0000B5F806B080BD00007047000070470000B7
:102B100010B590F83C20012A4FF0020251D080F805
:102B20003D200268D2F804E0D2F808C00C682EF00C
:102B30007003234341F2FF74C4F20004A2425360C5
:102B40000EDC40F2FF73C4F200039A4216DCB2F1CD
:102B5000804F2BD040F20043C4F2000324E000BFBA
:102B600040F2FF33C4F201039A4213DC41F6000342
:102B7000C4F200039A4219D0002313E040F6000388
:102B8000C4F200039A4211D040F60043C4F200039D
:102B90000AE000BF44F20003C4F201039A4205D0E8
:102BA00040F20043C4F201039A4204D149682CF078
:102BB0008003194391600121002280F83D1080F8C4
:102BC0003C20104610BD0000002804BF01207047C3
:102BD00010B5044690F83D0028B9002084F83C0068
:102BE000204600F01FF8022084F83D002068211DD7
:102BF00000F034FC012084F8460084F83E0084F89C
:102C00003F0084F8400084F8410084F8420084F8D2
:102C1000430084F8440084F8450084F83D00002017
:102C200010BD000081B000680021C4F2010188429B
:102C300002D001B0704700BF0020009043F644006E
:102C4000C4F20200016841F001010160006800F077
:102C500001000090009801B07047000090F83D100E
:102C600001291CBF01207047022180F83D10006837
:102C700041F2FF72C168C4F20002904241F00101CA
:102C8000C1600DDC40F2FF71C4F20001884215DC26
:102C9000B0F1804F2AD040F20041C4F2000123E09D
:102CA00040F2FF31C4F20101884213DC41F6000119
:102CB000C4F20001884219D0002113E040F600015F
:102CC000C4F20001884211D040F60041C4F2000174
:102CD0000AE000BF44F20001C4F20101884205D0BD
:102CE00040F20041C4F20101884206D1816801F03E
:102CF0000701062904BF00207047016841F0010167
:102D0000016000207047000080B590F83C20012A47
:102D10004FF0020200F0C28080F83D20D0F800C0E1
:102D20004FF67772DCF8083023EA0202CCF808206C
:102D30000B684F2B28DC1F2B44DD202B45D0302B7C
:102D400043D0402B40F0AC80D1F804E0C968DCF8F7
:102D50002030DCF8202022F00102CCF82020DCF822
:102D6000182022F0F00242EA011123F00A0242EA9E
:102D70000E02CCF81810CCF82020DCF8081041F036
:102D8000470121F0300180E06F2B27DDB3F5005FB4
:102D900048D0B3F5805F7AD0702B40F08180D1E9C4
:102DA00001E3C968DCF8082043EA0E0322F47F42FD
:102DB00043EA01211143CCF80810DCF8081041F077
:102DC000770162E00BB1102B6AD1DCF8081021F01A
:102DD0007001194341F0070157E000BF502B35D077
:102DE000602B5DD1D1F804E0C968DCF8203023F015
:102DF0001003CCF82030DCF81830DCF8202023F465
:102E0000704322F0A00243EA013142EA0E12CCF8EC
:102E10001810CCF82020DCF8081041F0670121F0F0
:102E2000100132E0D1E901E3C968DCF8082043EA87
:102E30000E0322F47F4243EA01211143CCF808102B
:102E4000DCF8081041F480411FE000BFD1F804E035
:102E5000C968DCF82030DCF8202022F00102CCF830
:102E60002020DCF8182022F0F00242EA011123F0C1
:102E70000A0242EA0E02CCF81810CCF82020DCF846
:102E8000081041F0570121F02001CCF80810002271
:102E9000012180F83D10002180F83C10104680BDD3
:102EA0000122F5E77047000010B501680446086983
:102EB000800744BFC8685FEA807039D4086940075A
:102EC00044BFC8685FEA40703ED40869000744BF49
:102ED000C8685FEA007045D40869C00644BFC86886
:102EE0005FEAC0604AD40869C0071CBFC8685FEACF
:102EF000C07051D10869000644BFC8685FEA00602D
:102F000052D40869400644BFC8685FEA406053D4A1
:102F10000869800646BFC8685FEA806010BD6FF030
:102F2000200220460A61BDE81040FFF7EFBD00BF58
:102F30006FF002000861012020778869800743D084
:102F40002046FFF7AFFF45E06FF004000861022064
:102F50002077886910F4407F40D02046FFF7A2FF19
:102F600042E000BF6FF00800086104202077C869C4
:102F700080073DD02046FFF795FF3FE06FF010003F
:102F8000086108202077C86910F4407F3AD02046B5
:102F9000FFF788FF3CE000BF6FF0010008612046AA
:102FA00000F03EF82168A5E76FF080000861204638
:102FB000FFF7AAFD2168A4E76FF0400008612046F2
:102FC00000F038F82168A3E7204600F025F82046F5
:102FD00000F024F82168002020776FE7204600F0F9
:102FE0001BF8204600F01AF82168002020776CE7D3
:102FF000204600F011F8204600F010F8216800206B
:10300000207769E7204600F007F8204600F006F830
:1030100021680020207766E77047000070470000B5
:10302000006841F20001C4F20001884218BF7047F5
:10303000FEF742BD70470000002804BF0120704722
:1030400010B5044690F83D0028B9002084F83C00F3
:10305000204600F021F8242084F83D002068C16853
:1030600021F40051C160204600F096FA2068016901
:1030700021F490410161416921F02A014161C16857
:1030800041F40051C16000202021206484F83D10EB
:1030900084F83E1010BD000080B586B0016841F292
:1030A0000000C4F20100814202D006B080BD00BF22
:1030B000002143F630020191C4F20202536900F587
:1030C000704043F010035361536903F01003019300
:1030D000019B0191136843F001031360126802F031
:1030E00001020192019A4FF4C06201920222CDE9DD
:1030F0000221032104910721059101A9FDF7B6FDE5
:1031000006B080BDFEE7000040F61C10C2F20000D1
:10311000FEF798BDF0B50468D1E900CE04EBC2100B
:103120008B68CD68E668D0F88820002702F47042EA
:10313000C0F88820E268C0F6FF77C2F30B423E4039
:10314000624406EB0E4601323243C0F88820E26842
:10315000D0F88C606FF3DF2206F47046C0F88C6004
:10316000E4682A446FF3DF242344013343EA024234
:10317000C0F88C20D0F8942022F00702C0F89420E8
:103180000B69C0F8943091F8322091F831408D6984
:10319000D0F89C6000261204C0F89C6091F8307052
:1031A00042EA042242EA05623A44C0F89C20D0F880
:1031B000982040F2077422F0FF02C0F898204A6974
:1031C000072BC0F89820D0F8A02022EA0402C0F80B
:1031D000A020D1E9074500F1840244EA0504C0F8C3
:1031E000A040D0F8AC40C0F8AC604C6AC0F8AC402D
:1031F00006D848F2B410C0F6000050F8230000E0F2
:103200000120D36AAEEB0C0703F0E023D362D1E9CF
:103210000A3143437843033040EA0340D062106BE5
:1032200040F2FF73984310631163106840F001008F
:103230001060F0BDB0FA80F0420940F60000C4F220
:1032400002001021FDF7E6BD80B540F2A01044F663
:103250003D41C2F20000C0F60001002201F06EF80C
:10326000002818BFFDF7C8FA40F2A01040F208018C
:10327000C2F20000C2F2000101F094FC002818BF65
:10328000FDF7BAFA40F2A010C2F2000001F0CCFC47
:10329000002808BF80BDBDE88040FDF7ADBA000042
:1032A000FEE70000FEE7000040F2C450C2F200005A
:1032B000FDF77CBE000000000000000000000000E0
:1032C000EFF30980BFF36F8F154B1A681EF0100FD4
:1032D00008BF20ED108A20E9F04F10602DE90900A9
:1032E0004FF0500080F31188BFF34F8FBFF36F8F03
:1032F00004F028F84FF0000080F31188BDE80900C1
:1033000019680868B0E8F04F1EF0100F08BFB0EC65
:10331000108A80F30988BFF36F8F704700BF00BF2A
:10332000D0000020000000000000000000000000AD
:10333000074B19680868B0E8F04F80F30988BFF3BD
:103340006F8F4FF0000080F31188704700BF00BFFF
:10335000D0000020FFF778FF012003F0BBF9FBE766
:1033600080B54FF0500080F31188BFF36F8FBFF32B
:103370004F8F04F077FD30B14EF60450CEF20000CE
:103380004FF080510160002080F3118880BD000063
:10339000B0B592B0002443F64000CDE90A44CDE92F
:1033A00008440594CDE90344CDE901440094C4F2F6
:1033B00002000168012241F080510160006802258D
:1033C00000F080500090009847F200000094C4F292
:1033D0000000016862F38F310160006800F4404032
:1033E000009000984FF4803007904FF480000D90CB
:1033F00004200E904820CDE90F050320119006A867
:1034000006920C95FFF7A4F820B1EFF3108072B686
:10341000FEE700BF0F20CDE901054FF48050CDE954
:10342000040401A802210394FEF764FF20B1EFF326
:10343000108072B6FEE700BF12B0B0BD4EF68850E5
:10344000CEF20000016841F4700101607047000095
:1034500040F66420C2F20000FFF726BD10B540F62A
:10346000FF3E0368C4F2000E40F2004C7045C4F207
:10347000010C27DCB0F1804F31D040F20042C4F2A1
:10348000000290422BD040F60002C4F200029042AB
:1034900025D041F6FF72C4F20002904229DC70454B
:1034A0003CDCB0F1804F5FD040F20042C4F2000239
:1034B000904259D040F60002C4F20002904253D02C
:1034C00056E000BF40F60042C4F20002904206D02F
:1034D000604504D00022C4F201029042D9D14A686A
:1034E00023F07003134341F6FF72C4F200029042CE
:1034F000D5DD43F6FF72C4F20102904222DC42F2B3
:103500000002C4F2000290422ED00022C4F2010256
:10351000904229D0604527D02AE000BF40F6004203
:10352000C4F2000290421FD041F60002C4F2000231
:10353000904219D041F60042C4F20002904213D0EA
:1035400016E000BF44F20002C4F2010290420BD028
:1035500044F60002C4F20102904205D044F2004257
:10356000C4F20102904203D1CA6823F440731343AA
:1035700023F080024B69D1F800E08C681A430260A6
:10358000C46240F48062C0F828E0624504BF096963
:1035900001630121416110BD10B504460068D4E902
:1035A00002C22369016921F440511143016162693A
:1035B00043EA0C01E3691143C268194349F20C6301
:1035C0009A431143C1604169A26921F4407141F2FB
:1035D0000043114340F48062C4F201039A42416106
:1035E00002D1FEF76BFF01E0FEF754FFE16963686B
:1035F0001922B1F5004FA0FB020123D15A00DB0FC5
:10360000FCF783FE48F21F51C5F2EB11A0FB01232A
:103610005A094FF69C73C0F6FF7303F1805302FB07
:103620000300322303EBC000A0FB01014FF4F8704C
:1036300000EA111000EB0210C1F3421108442168A6
:10364000886010BD9A009B0FFCF75FFE48F21F5187
:10365000C5F2EB11A0FB01235A094FF69C73C0F68B
:10366000FF7302FB0300322303EB0010A0FB0101F8
:10367000F02000EA511000EB0210C1F3431108449E
:103680002168886010BD000090F88523120601D4DF
:1036900000225AE090F88923120601D4012254E056
:1036A00090F88D23120601D402224EE090F8912367
:1036B000120601D4032248E090F89523120601D4A3
:1036C000042242E090F89923120601D405223CE03E
:1036D00090F89D23120601D4062236E090F8A1232B
:1036E000120601D4072230E090F8A523120601D477
:1036F00008222AE090F8A923120601D4092224E026
:1037000090F8AD23120601D40A221EE090F8B123EE
:10371000120601D40B2218E090F8B523120601D44A
:103720000C2212E090F8B923120601D40D220CE00D
:1037300090F8BD23120601D40E2206E090F8C123B2
:10374000120644BFFF2070470F2201F5004100EB35
:103750008200C0F8841310467047000080B584B022
:10376000944601224FF0000ECDE9002119460122B6
:103770000223CDF80CE0CDF808C000F083FF002054
:1037800004B080BD10B584B09E4690F81D339446B9
:10379000069A0024002B18BF22460123CDE90031F0
:1037A0000392714600220223CDF808C000F06AFFA0
:1037B000002004B010BD0000B0B50446D0F87C0372
:1037C0000722C06900F1400142F2A11020820020CE
:1037D000C4F812000720E082204600F007FA0546F0
:1037E00010B12846B0BD00BFD4F8D4232046022132
:1037F00090472846B0BD0000B0B50446D0F87C0321
:10380000C569297841B1204600F0C8F929782046D9
:1038100000F0BCFB00202870297B41B1204600F05D
:10382000BDF9297B204600F0B1FB00202873697B9D
:1038300041B1204600F0B2F9697B204600F0A6FBBA
:1038400000206873D4F87C03C06928B1FCF736FD0A
:10385000D4F87C030021C1610020B0BD2DE9F04106
:1038600084B00221022201230446022600F004FB58
:10387000012806D807462046394601F0A1F928B1AB
:103880000226304604B0BDE8F08100BF012050217F
:10389000FCF700FD0546D4F87C03C5617DB31A2012
:1038A00017FB004191F94E03B0F1FF3F02DD00200C
:1038B00005E000BF01F55371898868706981C1B264
:1038C0002046FFF7E1FE014694F81D036A7894F85C
:1038D0001C336F890326CDE9000620462970029724
:1038E00000F0ECFE29782046002200F097FE2046EA
:1038F0000A210022002300F0BFFA012804D9022681
:10390000304604B0BDE8F0811A2110FB014292F963
:103910004E1302F55372B1F1FF3F9288C7BFA973EE
:103920002A83E9736A831A2110FB014191F9560336
:1039300001F55671B0F1FF3F04DD0988A8732983B2
:1039400004E000BF0988E873A87B6983C1B2204600
:10395000FFF79AFEE97B68732046FFF795FE697BC7
:10396000AA7B94F81C3394F81D732E8B28734FF0A8
:1039700002082046CDE90078029600F09FFE94F8F8
:103980001D03297BEA7B94F81C336F8BCDE900087B
:103990002046029700F092FE697B00262046002216
:1039A00085F84C6000F03AFE297B2046002200F0AA
:1039B00035FE304604B0BDE8F081000070470000DD
:1039C00070B582B00446D0F87C03C66996F84C0006
:1039D00004286ED8DFE800F004081C4C640000BF27
:1039E000002002B070BD00BF42F22100B16C208205
:1039F0000020C4F812000720E0822046072200F0D1
:103A0000F5F8012855D0002856D1022055E000BF16
:103A100042F2A1102082002006F14005C4F81200F5
:103A20000720E08220462946072200F0DFF801281F
:103A30003FD0002840D1002086F84C00B06C96F8AA
:103A400044100279914234D196F84610827991421D
:103A50002FD196F84510427991422AD12968006801
:103A6000814226D12046FFF7A9FF012002B070BD98
:103A700096F84D00022825D0012849D1706A328B72
:103A8000F1699042737B88BF1046012582B22046BF
:103A90000095FFF777FE022086F84D0038E000BF62
:103AA00020460021002400F07FF8002808BF86F897
:103AB0004C40012002B070BD042086F84C0001206B
:103AC00002B070BD717B204600F010FD02280AD0C4
:103AD00001281DD1716A308B814209D9F269091A16
:103AE00010447162F061012086F84D0007E000BFCC
:103AF0000020706286F84D00204600F04DF8042149
:103B0000D4F8D803C4F8E0130421002202F04CFEDC
:103B1000D4F87C03C56995F84E0004280ED003281C
:103B2000C7D1296A6A8B2B7B2046FFF717FE04203A
:103B300085F84E00012002B070BD00BF297B2046F1
:103B400000F0D4FC0128B4D1297B204600F0C0FC51
:103B5000A96A091A0AD06A8B904207D92A6AA9620F
:103B600010442862032085F84E0005E0002085F807
:103B70004E00204600F00CF80421D4F8D803C4F815
:103B8000E0130421002202F00FFE012002B070BDFC
:103B900070470000002070477047000080B500F0BB
:103BA0003FFC002080BD00008278012A05D14FF43F
:103BB0008172818200210261C1820021002200F015
:103BC00015B8000080B584B0944601224FF0000E75
:103BD000CDE90021194601220023CDF80CE0CDF8F3
:103BE00008C000F04FFD002004B080BD70B582B069
:103BF00004468078022813D0012827D1012502200D
:103C0000A160A2812576A0700321D4F8D803C4F85E
:103C1000E0130321002202F0C7FD284602B070BD68
:103C2000207E01380A283BD80FF20401DFE800F0BB
:103C3000063A12461E546A78842C9200627904F186
:103C40001001204600F004F9022065E00125284615
:103C500002B070BDD4F8C403A168A2892379E081C1
:103C60002046FFF7AFFF042056E000BFA168A289FD
:103C7000637901252046009500F0D0F8D4F8C403FC
:103C8000E08106202076BFE76179204600F02EFC17
:103C9000012869D004280ED002281AD00125B3E7E4
:103CA0000125B1E76179204600F020FC042818BF07
:103CB000022840F07F800B2091E000BF2179204650
:103CC00000F014FC052853D00428F4D0012840F05B
:103CD0008380092083E000BF6179204600F006FC64
:103CE000411E04294FF001053FF68EAF03260C203C
:103CF000DFE801F0067404823C0000BF84E700BFE7
:103D000007206CE02379204600210022FFF75AFFAC
:103D1000D4F8C403E08108202076012574E700BFB1
:103D20002179204600F0E2FB01281DD005281FD094
:103D30000428C0D0012567E76379012520460021CA
:103D40000022009500F06AF8D4F8C403E0810A204C
:103D5000207659E7607E0130C1B20229607617D81B
:103D600001252576A5704FE700260D20207600E07E
:103D700003260321D4F8D803C4F8E013032100225A
:103D8000002502F011FD0120A070257635463BE7A5
:103D9000D4F8D42320460621904761790025204697
:103DA000657600F0F3F82179204600F0EFF82570F1
:103DB0002DE000BF01282FD194F91000E18A0522DF
:103DC00000284FF0070048BF032248BF0920002900
:103DD00018BF104603E000BF012515E70520207637
:103DE0000321D4F8D803C4F8E0130321002202F021
:103DF000DBFC012508E700BF0B2020760321D4F867
:103E0000D803C4F8E0130321002202F0CDFC012006
:103E10000225A070F8E600BF0125F5E610B584B0D4
:103E20009E4690F81D339446069A0024002B18BF36
:103E300022460123CDE9003103927146002200237E
:103E4000CDF808C000F01EFC002004B010BD00003A
:103E500080B584B08C46002108230091CDE9023161
:103E6000114600220023CDF804C000F00BFC002016
:103E700004B080BDFCF7E6BEFF2911D1FF2A21D195
:103E8000FF2B6BD090F84913994267D090F86313D9
:103E90004FF0FF30994208BF0120C0B2704700BF09
:103EA00090F847C3FF2A1DD1FF2B2DD18C4555D04B
:103EB00090F861234FF0FF308A4208BF0120C0B262
:103EC000704700BF90F84813FF2B2DD1914245D089
:103ED00090F862134FF0FF30914208BF0120C0B24A
:103EE000704700BFFF2B2FD18C4503D190F848338A
:103EF000934233D090F861338B4243D190F8620300
:103F000090423BD03EE000BF8C4503D190F849235E
:103F10009A4223D090F861238A4233D190F8630308
:103F200098422FD12AE000BF914203D190F8491363
:103F3000994213D090F86213914223D190F8630311
:103F400098421FD11AE000BF8C450BD190F848C3AE
:103F5000944507D190F849C39C4503D10020C0B2D5
:103F6000704700BF90F861C38C450BD190F8621385
:103F7000914207D190F86303984203D10120C0B267
:103F8000704700BFFF20C0B2704700000F2907D85C
:103F900000EB8100D0F884136FF3DF31C0F8841395
:103FA000002070472DE9F04F85B0834680780E469B
:103FB00001280BF11C0509D14FF4D060ABF81000BB
:103FC0004FF40070CBF81200ABF816605846294643
:103FD0003246FFF70BFE18B1C0B205B0BDE8F08F56
:103FE0009BF81C009BF81D10BBF81E409BF820C0DE
:103FF0008BF839138BF83803B4F5807F28BF4FF462
:104000008074DBF821100928ABF83A438BF83CC3E5
:10401000CBF83D131CBF09208BF838030A2EC0F0E3
:10402000CD800A2CC0F0D08000214FF0000E00207F
:104030000926CDF800C000BF2B781D446F781E44C0
:10404000042F40F0B1802B78CDF804E0092B1CBF81
:1040500009222A701A2201FB02B2092182F84213B6
:104060006978049282F84313A97882F84413E978B6
:1040700082F845132F7982F8467395F805E0002FF2
:1040800082F847E3AB7982F84833E97982F849133B
:1040900095F808C0029182F84AC300F07F808EF044
:1040A000010183F0020211434FF0000A18BF012101
:1040B000039110E048F0020101F00301032905D14A
:1040C000AEF1110111F1100F38BF03200AF1010AFE
:1040D000BA45664462D2B1B2A14280F0878095F8B9
:1040E00000C0654469780529F2D10399287829B17F
:1040F000072107284FF0070007D108E0029931B9DE
:10410000092109284FF0090001D0084629700499B7
:1041100001EBCA0989F84C03687889F84D03A8783F
:1041200089F84E0395F8038089F84F8329796879D7
:1041300041EA0021A9F8501395F806E089F852E306
:10414000D1B1000209F5547100F4784008802A7951
:1041500023463C466F7967F30A22B2F5007F28BFF9
:104160004FF40072104427461C46088000209BF83C
:104170001D1331B99EE700BF03209BF81D130029D2
:1041800098D008F00301032902D0012998D09DE7B7
:10419000BEF1000F08BF032098E700BFDDF804E080
:1041A000DDF800C00EF1010E5FFA8EF101290ED884
:1041B000B2B2A242FFF440AF09E000BF0020C0B29B
:1041C00005B0BDE8F08F00BF00204FF0000EBCF13D
:1041D000020F5FFA8EF128BF4FF0020C8C4588BFAA
:1041E0000320C0B205B0BDE8F08F00BF0320C0B20D
:1041F00005B0BDE8F08F0000B0B5044680780D46EC
:10420000012804F58E7107D14FF4D06020824FF45D
:104210008070C4F81200E58220462A46FFF7E6FCCB
:1042200000B1B0BDD4F81C1194F82021C4F82613B5
:1042300084F82A23B4F8211194F82321A4F82B132D
:10424000A2F108014FEAF101072984F82D2305D8CE
:10425000012202FA01F111F08B0F02D1402184F802
:104260002D13092D38BFB0BDB4F8241194F82A21BC
:10427000A4F82E13D4F8261184F83423C4F830138C
:10428000B4F82B1194F82D21A4F8351384F83723B2
:10429000B0BD000070B51446827806461D4608463B
:1042A000012A06F58E7109D100F540704FF4D062F5
:1042B000708240F209403282B082F58230462A464E
:1042C000FFF794FC00B170BD96F81D11032918BFCB
:1042D00070BD96F81C110239A94238BF0D46EDB1E8
:1042E00006F58F71002200BF931C8E5C9BB2AB421F
:1042F000267017D2CE5C131D9BB2AB42667015D2EE
:10430000CE5C931D9BB2AB42A67013D2CB5C08323D
:1043100092B2E370AA4204F10404E5D300212170B3
:1043200070BD00BF01340021217070BD0234002136
:10433000217070BD03340021217070BDF0B58BB0C9
:10434000002853D004460D4680F8CC2300F55F7654
:1043500000F58E704FF40071FCF79CF83046482150
:10436000FCF7BAF800204FF4807101222070A4F805
:104370000110C4F8C40322834022A271C4F81C13A4
:1043800084F8230384F8200384F8210384F82203AB
:104390001848002D18BFC4F8D453079015A0C26860
:1043A000D0E901100A92CDE9081007A800210027E2
:1043B00002F09EF91349C4F8D80312A0061D00911B
:1043C0004ECED0E905500DF1040C8CE84E00CDE93D
:1043D00005506846214602F015FAC4F8DC03204671
:1043E00000F098F838460BB0F0BD00BF0227384601
:1043F0000BB0F0BD10000000020000000000000043
:1044000000000000E0810008814B0008000000006F
:10441000000000008000000000000000000000001C
:1044200080B5D0F8D003FCF71DFD40F20022022336
:10443000C100C0F20122042838BF22FA01F3D8B229
:1044400080BD000080B50122002180F8202380F883
:10445000211380F82213D0F8D813C0F8E0230846BF
:104460000121002202F0A0F9002080BDB0B5012595
:10447000044680F82153002084F8200384F82303A5
:10448000204600F0EDF821792046FFF77FFD6179A5
:104490002046FFF77BFDD4F8D80301210022C4F8A1
:1044A000E05302F081F90020B0BD000080B590F823
:1044B000CC0328B1C820FCF7C5FB002080BD00BF9D
:1044C0000846FEF7B7FEC820FCF7BCFB002080BD05
:1044D000D0F8D003FCF7C0BC80B5D0F8D003FCF70F
:1044E000B1FC032828BF0120C0B280BDD0F8D003A2
:1044F000FCF7ACBCD0F8C4130131C0F8C413017888
:104500000B2918BF7047D0F87C1309B18969084797
:104510007047000010B5044690F8CC0310B100209D
:1045200010BD00BF40F2C4500021C2F20000C4F22E
:10453000040101600C2100F1080C012200238CE829
:104540000E000221C0F80043C4F8D003C0E90613EE
:104550000362C3624363FDF77FF8002818BFFCF7CE
:104560004BF940F2C450C2F20000FCF767FC014670
:10457000204600F04FF8002010BD000080B5D0F8B4
:10458000D8130122C0F8E02308460121002202F0DE
:104590000BF9002080BD000010B584B0DDE906CE27
:1045A000089CD0F8D003CDE900CE0294FCF76CFC57
:1045B00040F200220223C100C0F20122042838BFC9
:1045C00022FA01F3D8B204B010BD0000002180F837
:1045D000231370470346D0F8D8034FF0010C012194
:1045E000002283F823C3C3F8E0C302F0DDB8000063
:1045F00080B5D0F8D003FDF7DFF840F200220223A7
:10460000C100C0F20122042838BF22FA01F3D8B257
:1046100080BD0000C0F8C41370470000D0F8D0037C
:104620002C2311FB030090F83B1000290CBF80F8ED
:10463000552080F8542000207047000080B5D0F845
:10464000D003FDF7C1F840F200220223C100C0F2FE
:104650000122042838BF22FA01F3D8B280BD00003D
:1046600080B5D0F8D003FDF7C5F840F20022022350
:10467000C100C0F20122042838BF22FA01F3D8B2E7
:1046800080BD0000B0B584B0DDE908CEDDE90A45A3
:10469000D0F8D003CDE900CECDE90245FCF72CFCE3
:1046A00040F200220223C100C0F20122042838BFD8
:1046B00022FA01F3D8B204B0B0BD000010B584B046
:1046C000DDE906CE089CCDE900CE0294FFF764FF39
:1046D000002004B010BD0000F0B585B004460220F3
:1046E0008DF8130094F82103012804BF03202070E3
:1046F00020780B2800F22A82DFE810F00C0034004A
:10470000400076002802B000E800FA0004010E0123
:104710002201280094F82003002800F017820125C8
:10472000C8202570FFF7A6FB2046FFF761FF002099
:1047300084F81C03C4F8C803D4F8D803012100226C
:10474000C4F8E05302F030F800E200BFD4F87C0374
:10475000002800F0FB81416920468847002005B011
:10476000F0BD00BF94F82303012840F0058100202C
:1047700084F81F03022020701AE100BFD4F8D4236C
:1047800012B12046042190476420FFF773FB2046B6
:10479000FFF7A2FE84F81D030520207020460021AB
:1047A0000026FEF771FF607120468021FEF76CFF46
:1047B000014694F81D0394F81C33A5792171CDE9C5
:1047C0000006204680220295FFF778FF94F81D032B
:1047D00094F81C336179A579CDE9000620460022C2
:1047E0000295FFF76BFFE3E0002504F561704021BF
:1047F00084F821534026FBF76FFE04F58E704FF4CA
:104800000071FBF747FE4FF480712570A4F801108A
:10481000C4F8C45301202083D4F87C03A671C4F8E3
:104820001C1320B1C16820468847C4F87C53D4F8D3
:10483000D42312B120460521904794F82203012881
:1048400040F0AC80002084F822032046FFF7F6FEFB
:1048500020460121FFF72AFEAAE000BF6078072862
:1048600000F26E81DFE810F00800F400BA00FE00EC
:10487000E8001C012C013A0120460821FFF7BCFC8E
:10488000032800F05381002840F05A8194F82D034A
:1048900094F81D230125217994F81C33A0716570CB
:1048A000002700920290204680220197FFF706FF22
:1048B00094F81D0394F81C336179A679CDE90007BB
:1048C000204600220296FFF7F9FE3AE1D4F87C0375
:1048D000002848D00169204688478DF813009DF8CC
:1048E0001300002870D09DF8130002283BD03CE054
:1048F000D4F8D423002A00F02981204601219047D2
:10490000082031E094F83D13204600F071F90028AA
:1049100004BF092020704BE094F83F0380060CD5BB
:104920002046012100F072F98DF813009DF8130064
:1049300018B19DF8130003283AD10A20207037E0FF
:10494000D4F8800388B1D4F8780394F84723017928
:1049500000239142C4F87C3305D18168C4F87C03FC
:104960002046884790B30D2020700521D4F8D80345
:10497000C4F8E013052121E0D4F8C803B0F57A7F2C
:1049800010D994F81F030130C1B2042984F81F0321
:1049900034BF00200D2020700AE000BF2046FFF742
:1049A0004DFE05E00A30C4F8C8030A20FFF762FA9A
:1049B0000121D4F8D803C4F8E0130121002201F04A
:1049C000F3FE002005B0F0BD0B20CDE706202070DF
:1049D000D4F8D423204603219047C6E7204601217E
:1049E000012500F0F7F8032800F09A80002840F035
:1049F000A8800220FFF73EFA94F81D23A379012531
:104A00000320217984F81C536070002600920293E1
:104A10002046802201230196FFF750FE94F81D03E3
:104A200094F81C336179A779CDE90006204600226D
:104A30000297FFF743FE84E0B4F83A132046FFF7ED
:104A4000B1FA032818D0002840F07A8005206AE0E7
:104A500020461221FFF7D0FB03280DD000286FD18C
:104A6000022060E020460921FFF79CFA032803D0CA
:104A7000002865D1042056E094F81E030130C1B22D
:104A8000042984F81E0359D261792046FFF77EFA83
:104A900021792046FFF77AFA002060704FE000BFCE
:104AA00094F8341349B104F58E722046FF23FFF7C2
:104AB000F1FB032801D0002842D1062023E000BFEB
:104AC00094F83513F1B104F58E722046FF23FFF7F9
:104AD000E1FB032816D098BB072024E094F8361396
:104AE000E1B104F58E722046FF23FFF7D3FB0028C7
:104AF000014618BF0121033818BF012001EA000553
:104B00001FE000BF072060700521D4F8D803C4F867
:104B1000E0130521002201F047FE11E0002510E01E
:104B20000D202070002060700AE000BF94F81E0382
:104B30000130C1B2042984F81E0317D30D20207060
:104B400001258DF813509DF8130018B1002005B011
:104B5000F0BD00BF002084F8240394F83703072138
:104B6000012808BF08212170FFE600BF61792046B7
:104B7000FFF70CFA21792046FFF708FA0020DEE75C
:104B800084B0044601AD00BFD4F8D81328464FF0D6
:104B9000FF3201F0C9FD01981028F5D12046FFF73A
:104BA0009BFDF1E711B1D0F880230AB102207047D4
:104BB0000122C0F88023C0F878130020704700005D
:104BC00090F83C238A4292BF022080F824130020F0
:104BD000704700008278012A05D14FF4A06241821B
:104BE00000210282416100210022FEF7FFBF000088
:104BF0008278012A05D14FF410624182002102829D
:104C0000416100210022FEF7F1BF00008278012AF5
:104C100005D14FF44072418200210282416100219E
:104C20000022FEF7E3BF000010B50446FFF706FDC3
:104C300020460121FFF73AFC002010BD05290BD0CA
:104C4000042911D0022918BF7047022040F29811A0
:104C5000C2F2000108707047032040F29811C2F2BE
:104C600000010870704700BF012040F29811C2F2A5
:104C7000000108707047000082B00499DDF808C098
:104C8000012940F64051C0F203016FD1826B4FF60B
:104C9000BF7322F480328263C268CFF6BD731A40BC
:104CA000C260C2680B9B22F44012012BC26003D188
:104CB000C26842F48012C26000220092009A01325F
:104CC0000092009A8A4200F2A9800269002A1ED44A
:104CD000009A01320092009A8A4200F29F80026993
:104CE000002A14D4009A01320092009A8A4200F2FB
:104CF00095800269002A0AD4009A01320092009A33
:104D00008A4200F28B800269B2F1FF3FD6DC0022BA
:104D10000092026942F001020261009A013200929F
:104D2000009A8A427AD80269D2071AD0009A0132D0
:104D30000092009A8A4271D80269D20711D0009A73
:104D400001320092009A8A4268D80269D20708D0DC
:104D5000009A01320092009A8A425FD80269D20713
:104D6000DBD10021BCF1010F72D169E0C268089B60
:104D700042F04002C26000220192019A0132019287
:104D8000019A8A4250D80269002A1BD4019A013242
:104D90000192019A8A4247D80269002A12D4019AE4
:104DA00001320192019A8A423ED80269002A09D44E
:104DB000019A01320192019A8A4235D80269B2F110
:104DC000FF3FDADC00220192026942F00102026137
:104DD000019A01320192019A8A4225D80269D207CA
:104DE0001AD0019A01320192019A8A421CD80269B2
:104DF000D20711D0019A01320192019A8A4213D846
:104E00000269D20708D0019A01320192019A8A42BE
:104E10000AD80269D207DBD1002106E00321BCF1E8
:104E2000010F15D10CE000BF0321826B002B14BFD2
:104E300022F4803242F480328263BCF1010F07D148
:104E4000826842F006028260826842F0200282603C
:104E5000084602B0704700000146806820F0010259
:104E600000208A607047000081B000220092D0F8D4
:104E7000402401290092009A22F02E020092009B09
:104E8000009A08BF13F480530CD039B912F4805142
:104E900004D0009921F48051C0F84014002001B0E2
:104EA000704700BF42F48051C0F8401400980020C1
:104EB00001B070470146806840F0010200208A601E
:104EC0007047000081B040F64051C0F2030100225B
:104ED0000092009A01320092009A8A424AD80269EE
:104EE000002A1BD4009A01320092009A8A4241D8CB
:104EF0000269002A12D4009A01320092009A8A4272
:104F000038D80269002A09D4009A01320092009A26
:104F10008A422FD80269B2F1FF3FDADC0022009208
:104F200010220261009A01320092009A8A4221D82E
:104F30000269D2061AD5009A01320092009A8A427A
:104F400018D80269D20611D5009A01320092009A4F
:104F50008A420FD80269D20608D5009A013200921F
:104F6000009A8A4206D80269D206DBD4002001B03A
:104F7000704700BF032001B07047000081B040F6C9
:104F80004052C0F2030200230093009B01330093C0
:104F9000009B93424AD80369002B1BD4009B01332A
:104FA0000093009B934241D80369002B12D4009BCD
:104FB00001330093009B934238D80369002B09D436
:104FC000009B01330093009B93422FD80369B3F1F8
:104FD000FF3FDADC89010023203100930161009951
:104FE000013100910099914220D8016989061AD5B2
:104FF0000099013100910099914217D80169890601
:1050000011D5009901310091009991420ED80169A2
:10501000890608D50099013100910099914205D87F
:1050200001698906DBD4002001B07047032001B07C
:1050300070470000D0F8080480B2704781B00021AA
:105040000091D0F8400400900098C0F3414001B0B6
:1050500070470000406900F00100704780B581B0E2
:105060000022009200F5A06E49015EF801C05EF8D2
:1050700001308268920605D5B3F1FF3F02DD0020C2
:1050800001B080BD51F80E205FEA4C3342F08042FF
:1050900041F80E2042D482689206F0D4C26A51F8D8
:1050A0000E0012F47F0F40D120F0004041F80E00B6
:1050B00051F80E0040F0004041F80E000098013019
:1050C00000900098B0F57A7FD9D851F80E00B0F171
:1050D000FF3FD4DC0098013000900098B0F57A7F53
:1050E000CDD851F80E00B0F1FF3FC8DC0098013078
:1050F00000900098B0F57A7FC1D851F80E00B0F159
:10510000FF3FBCDC0098013000900098B0F57A7F3A
:10511000B5D851F80E000028D0D4B0E7D0F810244C
:1051200051F80E0012F47F0F06D040F0004041F815
:105130000E00002001B080BD20F0004041F80E00BC
:1051400051F80E0040F0004041F80E000098013088
:1051500000900098B0F57A7F3FF691AF51F80E00BD
:10516000B0F1FF3F3FF78BAF0098013000900098FF
:10517000B0F57A7F3FF683AF51F80E00B0F1FF3FF4
:105180003FF77DAF0098013000900098B0F57A7F2E
:105190003FF675AF51F80E00B0F1FF3F3FF76FAF2C
:1051A0000098013000900098B0F57A7F3FF667AF25
:1051B00051F80E000028C9D461E700002DE9F04342
:1051C00081B0DDE908840A9E00EB411707F5A06E67
:1051D0004FF0FF35032C4FF00109C7F8085511D8DF
:1051E000DFE804F00214022040F29D4C754657B2ED
:1051F000002F45F80CCF1DD4C76BFF0520D54FF00D
:10520000600C19E04FF0010C1CE000BF40F2252CAF
:10521000754657B2B7F1FF3F45F80CCF10DC4FF49D
:10522000C07C09E040F29D6C754657B2002F45F8EE
:105230000CCF05D54FF4807C2F6847EA0C072F6010
:105240004FF0000CDEF80C5001F00F0145F00205A4
:10525000CEF80C50D0F8185409FA01F12943C0F8DF
:10526000181481694FF4F04541F00071816100210B
:105270000091D0F8400402F0800105EAC2220090BB
:1052800003F07F0342EA0121009804F0030541EA9C
:1052900083516FF3DF2641EA854100F4C020314499
:1052A000B0F5802F084618BF00F50030B8F1020FA6
:1052B00018BF084604F0FD010129CEF8000005D111
:1052C000DEF8000040F00050CEF80000604601B06B
:1052D000BDE8F083D0F8140480B27047F0B581B017
:1052E00091F801C0C36BDB0503D50B79002B00F0EF
:1052F0007580D1F814E0BEF1000F0DD00B890EEBD4
:105300000304013CB4FBF3F39CB2B4F5807F88BF87
:105310004FF4807401E000BF0124CB780026C1F671
:10532000F876002B1ABF0D896543754606EAC4441A
:105330008E7A0D616FF3DF452C4406F0030544EAD5
:10534000457500EB4C16C6F8105506F5A064002A0A
:105350001CBFCD686561D0F80854266826F0005659
:1053600026604FF00056276826EA457545EA07058E
:10537000256025680095009D25F080450095009DDD
:1053800063B145F400400090009840F00040009068
:1053900000982060002001B0F0BD00BF25F400435C
:1053A0000093009BBEF1000F43F000430093009B6D
:1053B0002360EFD0002AEDD1CA79032A30D8DFE884
:1053C00002F00321032100BFC36A0EF10302C2F3FE
:1053D0008F029BB29A4223D920221EE0002A53D08A
:1053E000012A7FF486AFCB7943F00203022B7FF4CE
:1053F00080AF00EB4C13D3F80C5525F07005C3F8C3
:105400000C5576E7D0F810340EF10302C2F38F0288
:105410009BB29A4204D94FF0806283691A43826139
:105420001FFA8EF2002AB5D0D51C4FF0FF33C968A1
:1054300003EB950300F580504FEA0C32032BC5F3C4
:1054400081030FD3AF0827F0030400BF0F68043CAB
:1054500017504F6817508F681750CF6801F110012F
:105460001750F3D1002B3FF495AF0F68012B175065
:105470003FF490AF4F68022B17501CBF8968115042
:10548000002001B0F0BD00BF4B79012B7FF431AF9C
:10549000002100EB4C10C8F20801C0F81015D0F83C
:1054A0000015022262F39F71C0F80015002001B0C0
:1054B000F0BD000070B582B001460020C1F8000EBA
:1054C000886BDDF818C040F400108863886B20F406
:1054D00000208863886B20F480208863C86BC00537
:1054E00002D4D1F8000407E0D1F80004012B03D165
:1054F00040F0040002E000BF20F0040040F64053FA
:10550000C1F80004C0F203030020009000980130AD
:1055100000900098984249D8086900281BD4009848
:10552000013000900098984240D80869002812D4B1
:105530000098013000900098984237D808690028F8
:1055400009D4009801300090009898422ED808693C
:10555000B0F1FF3FDADC002000904FF48460086176
:10556000009801300090009898421FD80869800682
:105570001AD50098013000900098984216D8086912
:10558000800611D5009801300090009898420DD8FF
:105590000869800608D5009801300090009898426C
:1055A00004D808698006DBD4002000E00120002533
:1055B0000195019D01350195019D9D4248D80D69D8
:1055C000002D1BD4019D01350195019D9D423FD8C1
:1055D0000D69002D12D4019D01350195019D9D425B
:1055E00036D80D69002D09D4019D01350195019D25
:1055F0009D422DD80D69B5F1FF3FDADC00250195FC
:1056000010250D61019D01350195019D9D421FD819
:105610000D69ED061DD5019D01350195019D9D4248
:1056200016D80D69ED0614D5019D01350195019D32
:105630009D420DD80D69ED060BD5019D01350195F3
:10564000019D9D4204D80D69ED06DBD401E000BF49
:105650000120D2B3541E02F0030E0023032C4FF09E
:1056600000041AD322F003024FF0FF35002400BFDC
:105670000E19043A04F18004C6F80855C6F80C3532
:10568000C6F82855C6F82C35C6F84855C6F84C3526
:10569000C6F86855C6F86C35EAD1BEF1000F14D0D3
:1056A00001F5A06222444FF0FF340023BEF1010F48
:1056B0009460D36009D0BEF1020F9462D36204D02B
:1056C0004FF0FF3393640023D36400228A614FF0CC
:1056D000FF324A61CA6B40F2002312F4807240F23A
:1056E00000364FF40072C0F20013C0F2E00608BFAB
:1056F000802204BF8023C0F2600304BFE026C0F212
:105700004006BCF1000F4A628B62C1F8006103D110
:105710008A6942F010028A618A690823CAF220333A
:105720001A438A6102B070BDD0F8002401F003036F
:1057300022F00302C0F80024D0F80024012942EA34
:105740000302C0F8002405D0022907D141F270718C
:1057500002E000BF4BF68031C0F80414002070470F
:10576000416980690840704710B5930802F0030E44
:105770002CD05A1E032A03F0030C0FD323F003038B
:105780004FF480528458043B0C6084584C60845819
:105790008C608458CC6001F11001F3D1BCF1000F92
:1057A00014D04FF4805284580B46BCF1010F43F8DB
:1057B000044B05D11946BEF1000F0AD11EE000BF0F
:1057C0008258BCF1020F4A601AD10831BEF1000FB5
:1057D00014D04FF4805280580A46BEF1010F02F8EF
:1057E000010B04BF104610BD020ABEF1020F4A7041
:1057F00004BF881C10BD000C88700331084610BD22
:105800004FF4805282588A600C31BEF1000FE0D113
:10581000F4E7000010B582B0044600200190D4F8EF
:1058200040040190019820F02E000190019840F46E
:105830008070C4F840046420FBF704FA019820F457
:105840008070C4F840040A20FBF7FCF9002002B085
:1058500010BD0000B0B50446C06820F0C040E06054
:1058600091B1012926D1E068002540F00050E060A8
:105870000120FBF7E7F96069C00705F1010014D1C9
:10588000312D0546F4D310E0E068002540F080405B
:10589000E06000BF0120FBF7D5F96069C00705F1A2
:1058A000010002D0312D0546F4D33238B0FA80F031
:1058B0004009B0BD0120B0BD83B00146002000907A
:1058C0008B6840F64052C0F2030223F001038B6064
:1058D0000190019801300190019890424AD80869DE
:1058E00000281BD40198013001900198904241D8C2
:1058F0000869002812D40198013001900198904263
:1059000038D80869002809D401980130019001981D
:1059100090422FD80869B0F1FF3FDADC00200190F7
:105920004FF4846008610198013001900198904221
:1059300020D8086980061AD5019801300190019895
:10594000904217D80869800611D50198013001905E
:10595000019890420ED80869800608D50198013058
:1059600001900198904205D808698006DBD4002098
:1059700001E000BF012000230293029B0133029348
:10598000029B934248D80B69002B1BD4029B013326
:105990000293029B93423FD80B69002B12D4029BC7
:1059A00001330293029B934236D80B69002B09D432
:1059B000029B01330293029B93422DD80B69B3F1F2
:1059C000FF3FDADC0023029310230B61029B0133BB
:1059D0000293029B93421FD80B69DB061DD5029BE5
:1059E00001330293029B934216D80B69DB0614D550
:1059F000029B01330293029B93420DD80B69DB0695
:105A00000BD5029B01330293029B934204D80B698E
:105A1000DB06DBD401E000BF0120D1F8003547F6FA
:105A2000FF72C3F6FF72134003F18043C1F80035E3
:105A3000D1F82035134003F18043C1F82035D1F867
:105A40004035134003F18043C1F84035D1F860354B
:105A5000134003F18043C1F86035D1F8803513401D
:105A600003F18043C1F88035D1F8A035134003F12C
:105A70008043C1F8A035D1F8C035134003F180430D
:105A8000C1F8C035D1F8E035134003F18043C1F8C7
:105A9000E035D1F80036134003F18043C1F80036F9
:105AA000D1F82036134003F18043C1F82036D1F8F5
:105AB0004036134003F18043C1F84036D1F86036D8
:105AC000134003F18043C1F86036D1F880361340AB
:105AD00003F18043C1F88036D1F8A036134003F1BA
